:100000000C942A000C9493040C9447000C94470021
:100010000C9447000C9447000C9447000C94470044
:100020000C9447000C9447000C94BC040C944700BB
:100030000C9447000C9447000C9447000C94470024
:100040000C9447000C9447000C9447000C94470014
:100050000C94470011241FBECFE5D8E0DEBFCDBF12
:1000600010E0A0E6B0E0EAE1F2E102C005900D92F6
:10007000A636B107D9F710E0A6E6B0E001C01D92A0
:10008000A238B107E1F70E9474050C940B090C9497
:100090000000382F883008F07AC0613029F16130D3
:1000A00038F0623009F43CC0633009F070C053C0CE
:1000B000413059F42AB381E090E002C0880F991FC3
:1000C0003A95E2F7282B2ABB60C0442309F05FC0B1
:1000D0002AB381E090E002C0880F991F3A95E2F7B9
:1000E000809582238ABB51C0413059F427B381E007
:1000F00090E002C0880F991F3A95E2F7282B27BBA2
:1001000044C0442309F043C027B381E090E002C01B
:10011000880F991F3A95E2F78095822387BB35C0F7
:10012000413059F424B381E090E002C0880F991F58
:100130003A95E2F7282B24BB28C0442341F524B389
:1001400081E090E002C0880F991F3A95E2F7809510
:10015000822384BB1AC0413059F421B381E090E07E
:1001600002C0880F991F3A95E2F7282B21BB0DC0DA
:10017000442369F421B381E090E002C0880F991F05
:100180003A95E2F78095822381BB81E0089580E073
:100190000895382F883008F07AC0613029F1613035
:1001A00038F0623009F43CC0633009F070C053C0CD
:1001B000413059F42BB381E090E002C0880F991FC1
:1001C0003A95E2F7282B2BBB60C0442309F05FC0AF
:1001D0002BB381E090E002C0880F991F3A95E2F7B7
:1001E000809582238BBB51C0413059F428B381E004
:1001F00090E002C0880F991F3A95E2F7282B28BBA0
:1002000044C0442309F043C028B381E090E002C019
:10021000880F991F3A95E2F78095822388BB35C0F5
:10022000413059F425B381E090E002C0880F991F56
:100230003A95E2F7282B25BB28C0442341F525B386
:1002400081E090E002C0880F991F3A95E2F780950F
:10025000822385BB1AC0413059F422B381E090E07B
:1002600002C0880F991F3A95E2F7282B22BB0DC0D8
:10027000442369F422B381E090E002C0880F991F03
:100280003A95E2F78095822382BB81E0089580E071
:100290000895813069F0813028F0823079F0833020
:1002A000D1F412C0862F81508E3FA8F06ABB11C0D6
:1002B000862F81508E3F78F067BB0BC0862F815010
:1002C0008E3F48F064BB05C0862F81508E3F18F0EA
:1002D00061BB81E0089580E00895813051F0813064
:1002E00030F0823041F0833049F080E008956ABBFD
:1002F00003C067BB01C064BB81E0089561BB81E0BE
:100300000895282FFA018830E8F442305105D1F0E1
:10031000613049F0613028F0623039F0633091F497
:1003200006C089B305C086B303C083B301C080B3E0
:1003300090E002C0959587952A95E2F781708083B9
:1003400081E0089580E00895613021F1613030F05E
:100350006230D1F1633009F06AC04FC0813059F486
:10036000413019F48AB3806F0DC0442309F05FC097
:100370008AB38F7007C0882309F059C0413021F437
:100380008AB38F608ABB51C0442309F050C08AB33E
:10039000807FF8CF813059F4413019F487B3806FF2
:1003A00011C0442309F043C087B38F700BC088236A
:1003B000F1F5413019F487B38F6004C04423B9F5D7
:1003C00087B3807F87BB31C0813051F4413019F44D
:1003D00084B3806F10C0442351F584B38F700BC079
:1003E000882329F5413019F484B38F6004C0442375
:1003F000F1F484B3807F84BB18C0813051F4413064
:1004000019F481B3806F10C0442389F481B38F70D5
:100410000BC0882361F4413019F481B38F6004C0AC
:10042000442329F481B3807F81BB81E0089580E07B
:1004300008956130D9F0613030F0623049F16330B5
:1004400009F04BC037C0882329F48BB38F708BBB66
:100450008BB308C0813009F040C08BB38F708BBB69
:100460008BB34295407F842B8BBB35C0882329F406
:1004700088B38F7088BB88B307C0813071F588B3AB
:100480008F7088BB88B34295407F842B88BB23C084
:10049000882329F485B38F7085BB85B307C081306D
:1004A000E1F485B38F7085BB85B34295407F842B83
:1004B00085BB11C0882329F482B38F7082BB82B3BD
:1004C00007C0813051F482B38F7082BB82B34295F2
:1004D000407F842B82BB81E0089580E008950F93D4
:1004E0001F93DF93CF930F92CDB7DEB7062F182F50
:1004F00010650E940803812F0E941803802F0E941C
:100500003E030E945C03812F0E942B03CE010196C3
:100510000E944C030E946C0389810F90CF91DF9160
:100520001F910F910895FF920F931F93182F062F7D
:10053000F42E0E940803802F80650E9418038F2DDF
:100540000E943E03812F0E943E030E946C0380E4C0
:100550009CE90197F1F71F910F91FF9008958FB7D4
:1005600080688FBF089583E062E040E00E94C90088
:1005700084E062E040E00E94C90085E062E040E083
:100580000E94C90086E062E041E00E94C90008952F
:1005900083E062E041E00E94C90084E062E041E063
:1005A0000E94C90085E062E040E00E94C90086E048
:1005B00062E041E00E94C900089583E062E041E00A
:1005C0000E94C90084E062E041E00E94C90085E029
:1005D00062E041E00E94C90086E062E040E00E94E3
:1005E000C900089596B7906496BF0998089893E05B
:1005F00090B9880F82B986B7846086BF089596B790
:10060000906496BF880F82B986B7846086BF0895CC
:1006100086B7806286BF86B7806886BF06B607FE4B
:10062000FDCF81B190E0883009F491E0892F0895E1
:10063000880F83B9189886B78F7D86BF86B7806884
:1006400086BF06B607FEFDCF81B190E0883109F480
:1006500091E0892F0895880F83B9189A86B78F7D06
:1006600086BF86B7806886BF06B607FEFDCF81B11C
:1006700090E0803409F491E0892F089583B986B71A
:10068000806886BF06B607FEFDCF81B190E0883254
:1006900009F491E0892F0895FC0186B7806886BF30
:1006A00006B607FEFDCF81B1803511F080E00895D8
:1006B00083B1808381E0089586B7806286BF86B764
:1006C000806886BF06B607FEFDCF81B190E080311D
:1006D00009F491E0892F089586B7806186BF86B7B7
:1006E000806886BF08951F93182F87E063E040E07D
:1006F0000E94C90087E063E041E00E94490085E074
:100700008A95F1F7112329F087E063E040E00E9429
:10071000490080EF90E00197F1F787E063E040E067
:100720000E9449001F9108950F931F93082F18E00E
:10073000802F81700E94730306951150C9F71F9195
:100740000F910895DF93CF930F92CDB7DEB787E077
:1007500063E040E00E94C90087E063E041E00E945E
:10076000490085E08A95F1F787E063E040E00E9468
:1007700049008AE48A95F1F787E063E0AE014F5FB4
:100780005F4F0E94810180EF8A95F1F78981811185
:1007900081E00F90CF91DF9108950F931F9308E0B0
:1007A00010E00E94A203912F9695182F17951127FC
:1007B0001795192B0150A9F7812F1F910F910895BB
:1007C000DF93CF930F92CDB7DEB787E063E040E0D1
:1007D0000E94C90087E063E041E00E94490080E890
:1007E00097E00197F1F787E063E040E00E9449005D
:1007F00080EF90E00197F1F787E063E0AE014F5F93
:100800005F4F0E94810180E996E00197F1F78981AD
:100810000F90CF91DF910895FF920F931F93CF9385
:10082000DF93EC010E94E0038CEC0E94940384E4CB
:100830000E9494030E94A2038823E1F30E94E00334
:100840008CEC0E9494038EEB0E9494030E94CD03D3
:10085000082F0E94CD03F82E0E94E003F29480EF4F
:10086000F82210E00F70107081E792E09C01029F67
:10087000C001039F900D129F900D112499838883CE
:100880008F2D8077DF91CF911F910F91FF90089569
:1008900083B7886083BF83B78F7B83BF89B782604C
:1008A00089BF83B78F7D83BF83B78F7E83BF83B7B5
:1008B000887F83BF83B7856083BF089582BF089513
:1008C0008CBF089585B7826085BF85B7816085BF7D
:1008D0008BB780648BBF089585B7886085BF85B767
:1008E000846085BF8BB780688BBF089584B78064B0
:1008F00084BF8BB780628BBF0895382F85B7826025
:1009000085BF85B7816085BF832F8550833050F4C4
:100910002BB781E090E002C0880F991F3A95E2F76B
:10092000282B2BBF08951F920F920FB60F92112400
:100930002F933F938F939F93EF93FF938091660044
:10094000882321F481E08093660002C01092660043
:100950008CED95E020E931E0F9013197F1F701974D
:10096000D9F7FF91EF919F918F913F912F910F9028
:100970000FBE0F901F9018951F920F920FB60F92F7
:1009800011242F933F934F935F936F937F938F9394
:100990009F93AF93BF93EF93FF9380916600813055
:1009A00009F07CC080916D008F5F80936D006AE0DC
:1009B0000E94B608992301F580E890E00E940C049B
:1009C0008093700090916C00E92FF0E0EF58FF4F9A
:1009D00080839F5F90936C009A3011F410926C00AA
:1009E00080916B00882341F08091670062E040E0D5
:1009F0000E94C90010926B0080916D0064E60E9415
:100A0000B608992309F05FC010926D0080916700CD
:100A1000882309F458C062E041E00E94C90081E0E7
:100A200080936B00209172008091710090E0820FA2
:100A3000911D20917300820F911D20917400820FEF
:100A4000911D20917500820F911D20917600820FDB
:100A5000911D20917700820F911D20917800820FC7
:100A6000911D20917900820F911D20917A00820FB3
:100A7000911D20917B00820F911D6AE070E00E9421
:100A8000C208882777FD8095982F60936100709346
:100A90006200809363009093640015C0823099F4E3
:100AA0008091690090916A00019690936A0080930A
:100AB0006900845F914039F410926A0010926900D5
:100AC00081E080936600FF91EF91BF91AF919F917C
:100AD0008F917F916F915F914F913F912F910F90E7
:100AE0000FBE0F901F9018952F923F924F925F92DA
:100AF0006F927F928F929F92AF92BF92CF92DF922E
:100B0000EF92FF920F931F93DF93CF9300D0CDB757
:100B1000DEB782E063E040E00E94490086E063E0E7
:100B200040E00E94490080E061E040E00E9449000E
:100B300087E062E041E00E94490082E062E041E03B
:100B40000E94490084E060E041E00E94490085E0A5
:100B500060E041E00E94490086E060E041E00E94E0
:100B6000490087E060E041E00E94490081E061E0E7
:100B700041E00E94490082E061E041E00E944900BA
:100B800083E062E041E00E94490084E062E041E0ED
:100B90000E94490085E062E041E00E94490086E051
:100BA00062E041E00E9449008CE90E9460040E94DA
:100BB00048040E9462040E94AF0281E061E041E0CB
:100BC0000E94C90082E061E040E00E94C90081E02B
:100BD00060E040E00E94190280E197E220E931E004
:100BE000F9013197F1F70197D9F7BB242E01089449
:100BF000411C511C42E0242E312C2C0E3D1E30E2B3
:100C0000C32E3EE4D32E20E9622E21E0722E97E01F
:100C1000892E80916600813009F05DC186E063E035
:100C2000A2010E94810180E061E0A1010E94810196
:100C30008A81882319F48981882381F0198282E0CE
:100C40008093660084EF91E0F3013197F1F701970B
:100C5000D9F71A8210926A0010926900E090610040
:100C6000F09062000091630010916400C801B70128
:100C70002AE030E040E050E00E94D508A22EC801F2
:100C8000B7012AE030E040E050E00E94D508962EFF
:100C900081E061E040E00E94C90082E061E041E063
:100CA0000E94C90081E060E04A2D0E941902C6013D
:100CB0000197F1F781E061E041E00E94C90082E024
:100CC00061E040E00E94C90081E060E0492D0E949F
:100CD0001902C6010197F1F781E061E040E00E944E
:100CE000C90082E061E041E00E94C90081E060E06B
:100CF0004A2D0E941902C6010197F1F781E061E0D7
:100D000041E00E94C90082E061E040E00E94C90029
:100D100081E060E0492D0E941902C6010197F1F7B8
:100D200086E063E0A2010E94810180E061E0A10110
:100D30000E9481018A81882319F48981882381F0A6
:100D4000198282E08093660084EF91E0F30131978D
:100D5000F1F70197D9F71A8210926A001092690090
:100D600081E0B81619F4809267000AC082E0B816D4
:100D700019F4B092670004C0BB2011F41092670010
:100D8000E0906100F09062000091630010916400B7
:100D900080916000282F30E025503040C901AA27FB
:100DA00097FDA095BA2F2B5F3F4FE816F9060A076B
:100DB0001B0710F442E00EC040E02B5F3F4FC9011B
:100DC000AA2797FDA095BA2F8E159F05A007B107FA
:100DD00008F441E0B416A9F0442321F40E94B302C0
:100DE000BB240FC0413029F40E94DD02BB24B39420
:100DF00008C0423011F0B42E04C00E94C80282E044
:100E0000B82E81E061E040E00E94C90082E061E02C
:100E100041E00E94C90081E060E04A2D0E94190271
:100E2000C6010197F1F781E061E041E00E94C9004D
:100E300082E061E040E00E94C90081E060E0492D6D
:100E40000E941902C6010197F1F781E061E040E0DC
:100E50000E94C90082E061E041E00E94C90081E097
:100E600060E04A2D0E941902C6010197F1F781E066
:100E700061E041E00E94C90082E061E040E00E9440
:100E8000C90081E060E0492D0E941902C601019766
:100E9000F1F786E063E0A2010E94810180E061E059
:100EA000A1010E9481018A81882321F489818823FC
:100EB00009F4AFCE198282E08093660084EF91E05E
:100EC000F3013197F1F70197D9F71A8210926A006E
:100ED000109269009ECE823009F02EC186E063E058
:100EE000A2010E94810180E061E0A1010E948101D4
:100EF0008981882399F0809160008B3418F48B5F8E
:100F0000809360008CED95E0F3013197F1F7019744
:100F1000D9F710926A001092690019828A81882399
:100F200099F080916000882319F0855080936000CB
:100F30008CED95E0F3013197F1F70197D9F7109215
:100F40006A00109269001A8220916000822F6AE084
:100F50000E94B608182F822F0E94B608092F81E040
:100F600061E040E00E94C90082E061E041E00E944F
:100F7000C90081E060E0412F0E941902C60101977B
:100F8000F1F781E061E041E00E94C90082E061E0A8
:100F900040E00E94C90081E060E0402F0E941902F9
:100FA000C6010197F1F781E061E040E00E94C900CD
:100FB00082E061E040E00E94C90081E061E040E041
:100FC0000E94C90082E061E041E00E94C90081E026
:100FD00060E0412F0E941902C6010197F1F781E0FC
:100FE00061E041E00E94C90082E061E040E00E94CF
:100FF000C90081E060E0402F0E941902C6010197FC
:10100000F1F781E061E040E00E94C90082E061E028
:1010100040E00E94C90084EF91E0F3013197F1F7BD
:101020000197D9F781E061E040E00E94C90082E0C9
:1010300061E041E00E94C90081E060E0412F0E9430
:101040001902C6010197F1F781E061E041E00E94D9
:10105000C90082E061E040E00E94C90081E060E0F8
:10106000402F0E941902C6010197F1F781E061E06B
:1010700040E00E94C90082E061E041E00E94C900B6
:1010800081E060E0412F0E941902C6010197F1F74B
:1010900081E061E041E00E94C90082E061E040E05F
:1010A0000E94C90081E060E0402F0E941902C60141
:1010B0000197F1F781E061E040E00E94C90082E021
:1010C00061E040E00E94C90086E063E0A2010E9466
:1010D000810180E061E0A1010E9481018981882372
:1010E00099F0809160008B3418F48B5F80936000DE
:1010F0008CED95E0F3013197F1F70197D9F7109254
:101100006A001092690019828A81882309F481CDCE
:1011100080916000882319F08550809360008CEDE9
:1011200095E0F3013197F1F70197D9F710926A0032
:10113000109269001A826DCD882309F06ACD81E092
:1011400061E040E00E94C90082E061E040E00E946E
:10115000C90082E062E040E00E94C90087E062E0EE
:1011600040E00E94C9000E94B30253CD991B79E070
:1011700004C0991F961708F0961B881F7A95C9F727
:101180008095089597FB092E07260AD077FD04D095
:101190002ED006D000201AF4709561957F4F0895E7
:1011A000F6F7909581959F4F0895A1E21A2EAA1BFC
:1011B000BB1BFD010DC0AA1FBB1FEE1FFF1FA21707
:1011C000B307E407F50720F0A21BB30BE40BF50B04
:1011D000661F771F881F991F1A9469F7609570958D
:1011E000809590959B01AC01BD01CF010895AA1B8C
:1011F000BB1B51E107C0AA1FBB1FA617B70710F002
:10120000A61BB70B881F991F5A95A9F78095909533
:0A121000BC01CD010895F894FFCF52
:06121A003210000000008C
:00000001FF
